:020000040800F2
:1000000000000320150A0008CD070008CF070008EC
:10001000D1070008D3070008D5070008000000003A
:10002000000000000000000000000000D7070008EA
:10003000D907000800000000DB070008DD07000802
:10004000650A0008650A0008650A0008650A0008D4
:10005000650A0008650A0008650A0008650A0008C4
:10006000650A0008650A0008650A0008650A0008B4
:10007000650A0008650A0008650A0008650A0008A4
:10008000650A0008650A0008650A0008650A000894
:10009000650A0008650A0008650A0008650A000884
:1000A000650A0008650A0008650A0008650A000874
:1000B000650A0008650A0008650A0008650A000864
:1000C000650A0008650A0008650A0008650A000854
:1000D000650A0008E5070008F5070008650A00083A
:1000E000650A0008650A0008650A0008650A000834
:1000F000650A0008650A0008650A0008650A000824
:10010000650A0008650A0008650A0008650A000813
:10011000650A0008650A0008650A0008650A000803
:10012000650A0008650A0008650A0008650A0008F3
:10013000650A0008650A0008650A0008650A0008E3
:10014000650A0008650A0008650A0008650A0008D3
:10015000650A0008650A0008650A0008650A0008C3
:10016000650A0008650A0008650A0008650A0008B3
:10017000650A0008650A0008650A0008000000001A
:10018000650A0008650A0008650A0008650A000893
:10019000650A0008650A0008650A0008650A000883
:0C01A000650A0008650A0008650A0008EE
:1001AC0010B5054C237833B9044B13B10448AFF3A5
:1001BC0000800123237010BD4C08002000000000BB
:1001CC000C38000808B5034B1BB103490348AFF3C7
:1001DC00008008BD00000000500800200C3800080A
:1001EC0053B94AB9002908BF00281CBF4FF0FF3192
:1001FC004FF0FF3000F074B9ADF1080C6DE904CE8E
:10020C0000F006F8DDF804E0DDE9022304B07047E5
:10021C002DE9F047089E0D4604468846002B4DD12B
:10022C008A42944668D9B2FA82F252B101FA02F3C8
:10023C00C2F1200120FA01F10CFA02FC41EA030898
:10024C0094404FEA1C45210CB8FBF5FE1FFA8CF7C5
:10025C0005FB1E8341EA03430EFB07F199420BD9C0
:10026C001CEB03030EF1FF3080F01E81994240F22B
:10027C001B81AEF1020E63445B1AA4B2B3FBF5F022
:10028C0005FB103344EA034400FB07F7A7420AD9E5
:10029C001CEB040400F1FF3380F00881A74240F20C
:1002AC00058164440238E41B40EA0E4000211EB173
:1002BC00D4400023C6E90043BDE8F0878B4208D93F
:1002CC00002E00F0EE800021C6E900050846BDE8CE
:1002DC00F087B3FA83F100294AD1AB4202D38242B0
:1002EC0000F2F980841A65EB030301209846002E76
:1002FC00E2D0C6E90048DFE702B9FFDEB2FA82F2CB
:10030C00002A40F09180A1EB0C054FEA1C471FFA24
:10031C008CFE0121B5FBF7F307FB1350250C45EAC6
:10032C0000450EFB03F0A84208D91CEB050503F1B0
:10033C00FF3802D2A84200F2CB8043462D1AA4B259
:10034C00B5FBF7F007FB105544EA05440EFB00FE25
:10035C00A64508D91CEB040400F1FF3502D2A645D2
:10036C0000F2BB802846A4EB0E0440EA03409EE753
:10037C00C1F120078B4022FA07FC4CEA030C20FA4F
:10038C0007F405FA01F31C43FD404FEA1C4900FA3F
:10039C0001F3B5FBF9F8200C1FFA8CFE09FB18557C
:1003AC0040EA054508FB0EF0A84202FA01F20BD90F
:1003BC001CEB050508F1FF3A80F08880A84240F25A
:1003CC008580A8F1020865442D1AA4B2B5FBF9F09A
:1003DC0009FB105544EA054500FB0EFEAE4508D955
:1003EC001CEB050500F1FF346CD2AE456AD902381E
:1003FC00654440EA0840A0FB0294A5EB0E05A5421B
:10040C00C846A64656D353D05EB1B3EB080265EB93
:10041C000E0505FA07F722FA01F3CD401F43C6E992
:10042C0000750021BDE8F087C2F1200320FA03F12A
:10043C000CFA02FC25FA03F395400D434FEA1C47D6
:10044C001FFA8CFEB3FBF7F107FB11302B0C43EAC0
:10045C00004301FB0EF0984204FA02F408D91CEB9D
:10046C00030301F1FF382FD298422DD9023963448E
:10047C001B1AADB2B3FBF7F007FB103345EA03458B
:10048C0000FB0EF3AB4208D91CEB050500F1FF385D
:10049C0016D2AB4214D902386544ED1A40EA014138
:1004AC0038E73146304607E78646E5E61846FAE671
:1004BC004B45A9D2B9EB020864EB0C0E0138A3E74B
:1004CC004046EAE7204694E74146D1E7D0467BE731
:1004DC00023B654432E7084609E76444023842E7C8
:1004EC00704700BF82B0002100910B4B1A6B42F099
:1004FC0080021A631A6B02F080020092009A01913A
:10050C001A6B42F001021A631B6B03F00103019397
:10051C00019B02B0704700BF0038024072B6FEE784
:10052C0000B595B03022002108A802F0DFF80023B6
:10053C00039304930593069307930193204A116C3C
:10054C0041F080511164126C02F080520192019AB8
:10055C0002931C4B1A6842F440421A601B6803F465
:10056C0040430293029B012308934FF48033099379
:10057C0002230E934FF480020F9210221092C0228D
:10058C00119212930423139308A800F09BFC98B9C2
:10059C000F23039302230493002305934FF4A053DA
:1005AC0006934FF480530793042103A800F0D8FE60
:1005BC0020B915B05DF804FBFFF7B0FFFFF7AEFFF5
:1005CC00003802400070004008B5314801F0E6FFE9
:1005DC0000F06AFA2F4C00231A461946204601F007
:1005EC00B9FFFFF79DFFFFF77DFF00F05DF800F00E
:1005FC0067F900F07FF900F025F9274BFF221A70FC
:10060C0054225A7074229A702522DA70E422002146
:10061C00204601F058FFE4226C21204601F053FFE4
:10062C001E4A1021204601F04EFF1D4A262120466D
:10063C0001F049FF1B4A2721204601F044FF4FF4EB
:10064C0080623421204601F03EFF4FF410026D21F0
:10065C00204601F038FF40F6EC721421204601F0E0
:10066C0032FF01222021204601F02DFFC82000F08E
:10067C0047FA4FF410226D21204601F024FF12217D
:10068C00044801F02FFFC82000F03AFAF7E700BF4A
:10069C00A40B002070080020680800200001060050
:1006AC00FFFF010000FF040008B50F480F4B03606B
:1006BC004FF48273436000238360C36002220261A3
:1006CC00012242614FF4007282612022C2610362F6
:1006DC00436283620A23C36200F0B6FF00B908BD0F
:1006EC00FFF71CFFFBE700BF000B002000300140B0
:1006FC0010B588B0002303930493059306930793D6
:10070C0002681E4B9A4201D008B010BD0022009224
:10071C0003F58433596C41F480515964596C01F4DC
:10072C008051009100990192196B41F002011963FB
:10073C00196B01F002010191019902921A6B42F0BE
:10074C0001021A631B6B03F001030293029BE0236B
:10075C00039302230493032406940523079303A90C
:10076C00074800F0ABFAC0230393012305930493CD
:10077C00069403A9034800F0A1FAC5E70030014034
:10078C00000002400004024082B0002100910B4B9B
:10079C005A6C42F480425A645A6C02F480420092C1
:1007AC00009A01911A6C42F080521A641B6C03F08F
:1007BC0080530193019B02B0704700BF0038024088
:1007CC00FEE7FEE7FEE7FEE7FEE77047704770477F
:1007DC0008B500F083F908BD08B5024801F0A2FC89
:1007EC0008BD00BFA40B002008B5024801F09AFC1C
:1007FC0008BD00BFE80B002010B503460C4A0D499C
:10080C000D48006840B10C4800680344521A9342EA
:10081C0006D8094A136010BD0748084C0460F2E77B
:10082C0001F03AFF0C2303604FF0FF30F3E700BFF9
:10083C000000032000040000580B0020000D0020D5
:10084C007047000000B583B00023009301930E485D
:10085C000E4A0260436083604FF6FF72C260836190
:10086C0001F0D2F850B90023009301936946064871
:10087C0001F0F6F828B903B05DF804FBFFF74EFE63
:10088C00F1E7FFF74BFEF6E75C0B0020001400408D
:10089C000268094B9A4200D0704782B00023019342
:1008AC00064B1A6C42F020021A641B6C03F02003F6
:1008BC000193019B02B070470014004000380240C5
:1008CC0008B50A480A4B03604FF4E1334360002338
:1008DC008360C36003610C2242618361C36101F0D8
:1008EC002FFA00B908BDFFF719FEFBE7A40B002097
:1008FC000010014008B50A480A4B03604FF4E1337D
:10090C00436000238360C36003610C2242618361F6
:10091C00C36101F044FA00B908BDFFF7FFFDFBE726
:10092C00E80B00200044004010B58AB0002305936A
:10093C00069307930893099303682F4A934204D0B4
:10094C002E4A93422DD00AB010BD002401942C4B9A
:10095C005A6C42F010025A645A6C02F01002019266
:10096C00019A02941A6B42F001021A631B6B03F09A
:10097C0001030293029B4FF4C06305930223069379
:10098C00032308930723099305A91E4800F096F941
:10099C0022462146252000F0D9F8252000F00EF93A
:1009AC00D1E700240394164B1A6C42F400321A64FB
:1009BC001A6C02F400320392039A04941A6B42F0FC
:1009CC0001021A631B6B03F001030493049B0423C1
:1009DC00059312230693032308930723099305A970
:1009EC00084800F06BF922462146262000F0AEF8AC
:1009FC00262000F0E3F8A6E7001001400044004078
:100A0C000038024000000240DFF834D00D480E4997
:100A1C000E4A002302E0D458C4500433C4188C424C
:100A2C00F9D30B4A0B4C002301E013600432A242B1
:100A3C00FBD3FFF705FF01F035FEFFF7C5FD70474F
:100A4C0000000320000000204C080020DC380008C7
:100A5C004C080020FC0C0020FEE7000010B50446FA
:100A6C000E4B18784FF47A73B3FBF0F30C4A106802
:100A7C00B0FBF3F000F0B0F868B90F2C01D90120ED
:100A8C000AE0002221464FF0FF3000F05FF8054BE2
:100A9C001C60002000E0012010BD00BF04000020FD
:100AAC00000000200800002008B50B4B1A6842F427
:100ABC0000721A601A6842F480621A601A6842F472
:100ACC0080721A60032000F02FF80F20FFF7C6FF8A
:100ADC00FFF75AFE002008BD003C0240034A116893
:100AEC00034B1B780B441360704700BF2C0C002089
:100AFC0004000020014B1868704700BF2C0C00202C
:100B0C0038B50446FFF7F6FF0546B4F1FF3F02D0B7
:100B1C00044B1B781C44FFF7EDFF401BA042FAD39B
:100B2C0038BD00BF04000020074AD36823F4E063FB
:100B3C001B041B0C000200F4E060034343F0BF6392
:100B4C0043F40033D360704700ED00E000B5194B5F
:100B5C00DB68C3F30223C3F1070CBCF1040F28BFFD
:100B6C004FF0040C03F1040EBEF1060F18D9033B31
:100B7C004FF0FF3E0EFA0CFC21EA0C0199400EFAE4
:100B8C0003F322EA0303194300280BDB0901C9B262
:100B9C0000F1604000F5614080F800135DF804FB43
:100BAC000023E5E700F00F000901C9B2024B19540C
:100BBC00F4E700BF00ED00E014ED00E0002807DBD7
:100BCC0000F01F02400901239340024A42F82030F2
:100BDC00704700BF00E100E00138B0F1807F0BD21C
:100BEC004FF0E0235861054AF02182F823100020D1
:100BFC00986107221A6170470120704700ED00E0F0
:100C0C0070B50446866DFFF775FF94F83530DBB28E
:100C1C00022B06D080236365002384F83430012036
:100C2C0070BD05462268136823F016031360226812
:100C3C00536923F080035361236CE3B1226813687A
:100C4C0023F0080313602268136823F00103136078
:100C5C0023681B6813F0010F11D0FFF74BFF431BE8
:100C6C00052BF5D920236365032084F83500002378
:100C7C0084F83430D4E7A36C002BDFD1E3E7E26DCA
:100C8C003F239340B360012384F83530002084F86F
:100C9C003400C5E790F83530DBB2022B03D080234B
:100CAC00436501207047052380F8353002681368CE
:100CBC0023F00103136000207047000000230F2B6A
:100CCC0000F2F18070B582B061E085685E000324AB
:100CDC00B44025EA0405CC68B4402C4384604568D4
:100CEC0025EA02054C68C4F300129A402A4342607C
:100CFC005BE0DC08083450F8246003F00702950030
:100D0C000F22AA4026EA020E0A69AA4042EA0E0203
:100D1C0040F824205DE0092200E0002202FA0EF2E5
:100D2C002A430234604D45F82420604A94686FEAE7
:100D3C000C0224EA0C054E6816F4801F01D04CEA14
:100D4C0004055A4CA560E46802EA04054E6816F4E2
:100D5C00001F01D04CEA0405544CE560646802EABB
:100D6C0004054E6816F4003F01D04CEA04054F4CC4
:100D7C006560246822404D6815F4803F01D04CEA30
:100D8C0004024A4C226001330F2B00F28A800122AC
:100D9C009A400C6804EA020C32EA0404F3D14C6861
:100DAC0004F00304013C012C8FD94A6802F00302C1
:100DBC00032A09D0C4685D000322AA4024EA020475
:100DCC008A68AA402243C2604A6802F00302022ADF
:100DDC008FD004684FEA430E032202FA0EF224EA83
:100DEC0002044A6802F0030202FA0EF22243026085
:100DFC004A6812F4403FC6D0002201922C4A546C2F
:100E0C0044F480445464526C02F480420192019A7E
:100E1C009C08A51C244A52F8255003F003024FEA03
:100E2C00820E0F2202FA0EF225EA0205214A9042A6
:100E3C003FF473AF02F58062904222D002F58062DB
:100E4C00904220D002F5806290421ED002F5806262
:100E5C0090421CD002F5806290421AD002F580625A
:100E6C00904218D002F58062904216D002F5806252
:100E7C00904214D002F5806290423FF44CAF0A22AB
:100E8C004CE701224AE7022248E7032246E7042204
:100E9C0044E7052242E7062240E707223EE7082204
:100EAC003CE702B070BD704700380140003C014087
:100EBC0000380240000002400AB181617047090409
:100ECC0081617047002800F0E08170B582B0044663
:100EDC00036813F0010F3BD09F4B9B6803F00C038E
:100EEC00042B2CD09C4B9B6803F00C03082B21D0BB
:100EFC006368B3F5803F4FD0B3F5A02F52D0964B1B
:100F0C001A6822F480321A601A6822F480221A605D
:100F1C006368002B50D0FFF7EDFD05468E4B1B6828
:100F2C0013F4003F14D1FFF7E5FD401B6428F5D9FD
:100F3C000320B1E1884B5B6813F4800FD8D0864B4B
:100F4C001B6813F4003F03D06368002B00F09F81F3
:100F5C00236813F0020F54D07F4B9B6813F00C0FD7
:100F6C003ED07D4B9B6803F00C03082B33D0E36819
:100F7C00002B68D0794B01221A60FFF7BBFD0546A8
:100F8C00754B1B6813F0020F54D1FFF7B3FD401BD8
:100F9C000228F5D903207FE16F4A136843F48033AC
:100FAC001360B5E76C4B1A6842F480221A601A6819
:100FBC0042F480321A60ABE7FFF79CFD0546664BA6
:100FCC001B6813F4003FC3D0FFF794FD401B64284B
:100FDC00F5D9032060E1604B5B6813F4800FC6D138
:100FEC005D4B1B6813F0020F03D0E368012B40F03C
:100FFC005081594A136823F0F803216943EAC1036D
:10100C001360236813F0080F42D063696BB3534B22
:10101C000122C3F8802EFFF76DFD05464E4B5B6F2A
:10102C0013F0020F34D1FFF765FD401B0228F5D9F0
:10103C00032031E1484A136823F0F803216943EA9D
:10104C00C1031360DDE7454B00221A60FFF752FD28
:10105C000546414B1B6813F0020FD2D0FFF74AFD37
:10106C00401B0228F5D9032016E13C4B0022C3F8A3
:10107C00802EFFF73FFD0546374B5B6F13F0020FD9
:10108C0006D0FFF737FD401B0228F5D9032003E1FA
:10109C00236813F0040F77D02F4B1B6C13F0805F79
:1010AC0033D1002301932C4B1A6C42F080521A64FA
:1010BC001B6C03F080530193019B0125284B1B688B
:1010CC0013F4807F23D0A368012B34D0052B38D0A8
:1010DC00214B1A6F22F001021A671A6F22F00402D8
:1010EC001A67A368002B3DD0FFF704FD06461A4B88
:1010FC001B6F13F0020F46D1FFF7FCFC801B41F273
:10110C0088339842F3D90320C6E00025D6E7144A69
:10111C00136843F480731360FFF7ECFC0646104B26
:10112C001B6813F4807FCED1FFF7E4FC801B0228F0
:10113C00F5D90320B0E0084A136F43F0010313679D
:10114C00CFE7054B1A6F42F004021A671A6F42F090
:10115C0001021A67C5E700BF003802400000474291
:10116C0000700040FFF7C6FC0646524B1B6F13F095
:10117C00020F08D0FFF7BEFC801B41F28833984267
:10118C00F3D9032088E0EDB9A369002B00F083802C
:10119C00484A926802F00C02082A51D0022B17D050
:1011AC00454B00221A66FFF7A5FC0446414B1B6811
:1011BC0013F0007F42D0FFF79DFC001B0228F5D9ED
:1011CC00032069E03B4A136C23F080531364DBE784
:1011DC00394B00221A66FFF78DFC0546354B1B6810
:1011EC0013F0007F06D0FFF785FC401B0228F5D9D1
:1011FC00032051E0E369226A1343626A43EA8213D3
:10120C00A26A5208013A43EA0243E26A43EA0263E1
:10121C00284A5360284B01221A66FFF76BFC0446E0
:10122C00244B1B6813F0007F06D1FFF763FC001BF7
:10123C000228F5D903202FE000202DE000202BE020
:10124C00012B2BD01B4B5B6803F48001E2699142AC
:10125C0026D103F03F02216A8A4223D1616A47F604
:10126C00C0721A40B2EB811F1ED103F44031A26A46
:10127C005208013AB1EB024F18D103F07063E26AE5
:10128C00B3EB026F14D1002006E00120704701205F
:10129C0002E0012000E0002002B070BD0120FBE75D
:1012AC000120F9E70120F7E70120F5E70120F3E73A
:1012BC000120F1E7003802400000474208B5254BF9
:1012CC009B6803F00C03042B3FD0082B3FD1214B20
:1012DC005A6802F03F025B6813F4800F12D01D4B6A
:1012EC005968C1F388111C480023A1FB0001FEF7CB
:1012FC0077FF184B5B68C3F3014301335B00B0FB12
:10130C00F3F025E0134B5968C1F3881C4FEA4C11DC
:10131C00B1EB0C006EEB0E0E4FEA8E1343EA9063AA
:10132C008101091A63EB0E03DB0043EA5173C90018
:10133C0011EB0C0C43F10003990200234FEA8C20B3
:10134C0041EA9C51FEF74CFFD3E7034800E0034809
:10135C0008BD00BF0038024040787D010024F40035
:10136C00002800F09B8070B50D4604464F4B1B685F
:10137C0003F00F038B4208D2CBB24C4A13701368A4
:10138C0003F00F038B4240F08B80236813F0020FA5
:10139C0017D013F0040F04D0454A936843F4E0537C
:1013AC009360236813F0080F04D0414A936843F408
:1013BC00604393603E4A936823F0F003A1680B43AB
:1013CC009360236813F0010F32D06368012B21D096
:1013DC009A1E012A25D9364A126812F0020F61D0E2
:1013EC0033498A6822F0030213438B60FFF782FBB8
:1013FC0006462F4B9B6803F00C036268B3EB820F1D
:10140C0016D0FFF777FB801B41F288339842F0D956
:10141C00032042E0264A126812F4003FE0D101207A
:10142C003BE0234A126812F0007FD9D1012034E04E
:10143C001E4B1B6803F00F03AB4207D9EAB21B4BE0
:10144C001A701B6803F00F03AB422DD1236813F005
:10145C00040F06D0164A936823F4E053E1680B435B
:10146C009360236813F0080F07D0114A936823F494
:10147C006043216943EAC1039360FFF71FFF0C4BE4
:10148C009B68C3F303130B4AD35CD8400A4B186018
:10149C000A4B1868FFF7E2FA002070BD0120704774
:1014AC000120FAE70120F8E70120F6E7003C0240B2
:1014BC00003802402C3800080000002008000020F2
:1014CC00014B1868704700BF0000002008B5FFF7FB
:1014DC00F7FF044B9B68C3F38223034AD35CD840C9
:1014EC0008BD00BF003802403C38000808B5FFF7C3
:1014FC00E7FF044B9B68C3F34233034AD35CD840E9
:10150C0008BD00BF003802403C3800082DE9F04708
:10151C0082B00546884617461E46FFF7EBFA0A9B33
:10152C001B1A03EB0609FFF7E5FA82462B4B1B68E7
:10153C00C3F3CB3309FB03F301932B689C6838EAA4
:10154C0004030CBF4FF0010C4FF0000CBC4540D015
:10155C00B6F1FF3FF1D0FFF7CDFAA0EB0A004845FA
:10156C000AD2B9F1000F07D0019A02B14A46019B89
:10157C00013B01939146E0E72A68536823F0E003AE
:10158C0053606B68B3F5827F0BD0AB6AB3F5005F29
:10159C0014D0012385F85130002385F850300320F6
:1015AC0018E0AB68B3F5004F02D0B3F5806FECD107
:1015BC002A68136823F040031360E6E72A6813686F
:1015CC0023F4005313602A68136843F40053136028
:1015DC00DFE7002002B0BDE8F08700BF000000206C
:1015EC0010B584B00446164B1868164BA3FB00309C
:1015FC00400D4FF47A7303FB00F003906368B3F56E
:10160C00827F0BD0039BBBB1039B013B03932368ED
:10161C009B6813F0800FF5D100200EE000920B4672
:10162C00002280212046FFF771FF30B1636D43F03B
:10163C0020036365032000E0002004B010BD00BF50
:10164C0000000020819F5E1600285AD010B5044679
:10165C00436A33B94368B3F5827F05D00023C36175
:10166C0002E00023036143610023A36294F851302C
:10167C00002B40D0022384F851302268136823F0E9
:10168C0040031360636803F48273A26802F404429B
:10169C001343E26802F400621343226902F002026F
:1016AC001343626902F001021343A26902F400724F
:1016BC001343E26902F038021343226A02F08002FB
:1016CC001343A26A02F40052216813430B60638B2C
:1016DC0003F00403626A02F01002216813434B60AA
:1016EC002268D36923F40063D36100206065012371
:1016FC0084F8513010BD84F850302046FEF7F8FFC6
:10170C00B8E7012070472DE9F04383B01F460A9DCE
:10171C0090F85030012B00F0108104468846914619
:10172C00012380F85030FFF7E5F9064694F8513064
:10173C00DBB26268012B0AD0B2F5827F40F0E38005
:10174C00A268002A40F0E980042B40F0E880B8F150
:10175C00000F00F0E680B9F1000F00F0E480002FDC
:10176C0000F0E38094F85130DBB2042B02D0052357
:10177C0084F8513000236365C4F83890E787A78755
:10178C00C4F83080E786A7862364636423681A68EC
:10179C0012F0400F03D11A6842F040021A60E3685D
:1017AC00B3F5006F11D063680BB1012F0BD1226B15
:1017BC00236812781A73236B01332363E38E9BB275
:1017CC00013B9BB2E38601276BE063680BB1012FF1
:1017DC000BD1226B23681288DA60236B02332363EC
:1017EC00E38E9BB2013B9BB2E38601271CE023688E
:1017FC009A6812F0010F0ED0E28F92B25AB1DA68E9
:10180C00A36B1A80A36B0233A363E38F9BB2013BE0
:10181C009BB2E3870127FFF76DF9801BA84203D326
:10182C00B5F1FF3F40F08380E38E9BB21BB9E38F91
:10183C009BB2002B53D023689A6812F0020FD6D0BB
:10184C00E28E92B2002AD2D0002FD0D0226B128816
:10185C00DA60236B02332363E38E9BB2013B9BB2B2
:10186C00E3860027C3E723689A6812F0010F0ED0B5
:10187C00E28F92B25AB1DA68A36B1A70A36B013380
:10188C00A363E38F9BB2013B9BB2E3870127FFF776
:10189C0031F9831BAB4202D3B5F1FF3F49D1002D87
:1018AC0049D0E38E9BB213B9E38F9BB2BBB12368D3
:1018BC009A6812F0020FD6D0E28E92B2002AD2D0E1
:1018CC00002FD0D0226B12781A73236B0133236351
:1018DC00E38E9BB2013B9BB2E3860027C3E7324603
:1018EC0029462046FFF77CFE48B9A36863B90193EB
:1018FC002368DA6801929B680193019B04E0202322
:10190C006365012000E00220012384F8513000239C
:10191C0084F8503003B0BDE8F0830220F4E70220D5
:10192C00F2E70120F0E70120EEE70120ECE70320CD
:10193C00EAE70320E8E70320E6E70220EAE70000F5
:10194C000368304A904212D0B0F1804F0FD0A2F50C
:10195C007C4290420BD002F58062904207D002F597
:10196C008062904203D002F57842904203D123F07A
:10197C0070034A681343234A90422AD0B0F1804F37
:10198C0027D0A2F57C42904223D002F5806290428F
:10199C001FD002F5806290421BD002F57842904233
:1019AC0017D002F57052904213D002F5806290422B
:1019BC000FD002F5806290420BD0A2F59832904283
:1019CC0007D002F58062904203D002F5806290420B
:1019DC0003D123F44073CA68134323F080034A698C
:1019EC00134303608B68C3620B688362054B984298
:1019FC0003D003F58063984201D10B690363012383
:101A0C00436170470000014040B310B5044690F8A4
:101A1C003D30F3B1022384F83D30214651F8040BDC
:101A2C00FFF78EFF012384F8463084F83E3084F8AB
:101A3C003F3084F8403084F8413084F8423084F8E8
:101A4C00433084F8443084F8453084F83D3000202D
:101A5C0010BD80F83C30FEF71BFFDBE70120704720
:101A6C0090F83C30012B3CD010B4012380F83C3072
:101A7C00022380F83D3003685A689C6822F0700C91
:101A8C000A6842EA0C025A600368174A93421AD059
:101A9C00B3F1804F17D0A2F57C42934213D002F5DC
:101AAC00806293420FD002F5806293420BD002F514
:101ABC007842934207D002F57052934203D0A2F5BC
:101ACC009432934204D124F080044A6814439C60FD
:101ADC00012380F83D30002380F83C30184610BCC0
:101AEC0070470220704700BF00000140026802F1FD
:101AFC000C0353E8003F23F490730C3242E800319E
:101B0C000029F3D1026802F1140353E8003F23F0DB
:101B1C000103143242E800310029F3D1036B012B8D
:101B2C0005D0202380F83E30002303637047026801
:101B3C0002F10C0353E8003F23F010030C3242E88F
:101B4C0000310029F3D1ECE790F83D30DBB2212BCA
:101B5C0001D0022070478368B3F5805F17D0036A09
:101B6C005A1C02621A7803685A60C38C9BB2013B00
:101B7C009BB2C3844BB90268D36823F08003D36053
:101B8C000268D36843F04003D360002070470369B8
:101B9C00002BE4D1036A1B880268C3F3080353606B
:101BAC00036A02330362E0E738B50446026813693E
:101BBC0023F44053C1680B431361836802691343D8
:101BCC0042691343C2691A430168CB6823F4164374
:101BDC0023F00C031343CB600268536923F4407366
:101BEC0081690B4353610368314A934206D002F575
:101BFC008062934202D0FFF769FC01E0FFF776FCAC
:101C0C00E369B3F5004F29D00021031849411B1893
:101C1C0041F10001C90041EA5371DB0018186368F7
:101C2C004FEA83024FEA937341F10001FEF7D8FAB1
:101C3C00204DA5FB00325109642303FB11031B014A
:101C4C003233A5FB03235B0903F0F00202EB011214
:101C5C0003F00F03216813448B6038BD0023021876
:101C6C0043EB0301121841F10001C90041EA527122
:101C7C00D200101841F10001626892185B41FEF726
:101C8C00AFFA0C4DA5FB00325109642303FB110381
:101C9C00DB003233A5FB03235B095A0002F4F87214
:101CAC0002EB011203F00703216813448B60D4E7A5
:101CBC00001001401F85EB512DE9F84305460F46F6
:101CCC0016469946DDF820802C68246837EA040310
:101CDC000CBF4FF0010C4FF0000CB4452DD1B8F1F6
:101CEC00FF3FF1D0B8F1000F05D0FEF703FFA0EBDA
:101CFC0009004045E8D92A6802F10C0353E8003F7B
:101D0C0023F4D0730C3242E800310029F3D12A6855
:101D1C0002F1140353E8003F23F00103143242E8AC
:101D2C0000310029F3D1202385F83D3085F83E3071
:101D3C00002385F83C30032000E00020BDE8F88348
:101D4C0058B310B5044690F83D300BB3242384F8F7
:101D5C003D302268D36823F40053D3602046FFF74C
:101D6C0023FF2268136923F490431361226853699B
:101D7C0023F02A0353612268D36843F40053D360E1
:101D8C0000202064202384F83D3084F83E3010BDC0
:101D9C0080F83C30FEF7C8FDD8E7012070470028DA
:101DAC0030D010B5044690F83D3033B3242384F87A
:101DBC003D302268D36823F40053D3602046FFF7EC
:101DCC00F3FE2268136923F490431361226853696C
:101DDC0023F0220353612268536943F008035361D3
:101DEC002268D36843F40053D3600020206420237E
:101DFC0084F83D3084F83E3010BD80F83C30FEF75E
:101E0C0093FDD3E7012070472DE9F04182B01E46C7
:101E1C0090F83D30DBB2202B54D104460D46904651
:101E2C00002953D0002A53D090F83C30012B51D0CC
:101E3C00012380F83C3000230364212380F83D30DB
:101E4C00FEF758FE0746A4F82480A4F82680A36861
:101E5C00B3F5805F05D04FF00008002384F83C30C8
:101E6C0012E0236913B14FF00008F6E7A8460025ED
:101E7C00F3E738F8023B2268C3F308035360E28CA3
:101E8C0092B2013A92B2E284E38C9BB273B10096A7
:101E9C003B46002280212046FFF70EFFE0B9002DC3
:101EAC00E7D015F8012B23685A60E8E700963B460B
:101EBC00002240212046FFF7FFFE78B9202384F84A
:101ECC003D3000E0022002B0BDE8F0810120FAE7CD
:101EDC000120F8E70220F6E70320F4E70320F2E7FD
:101EEC002DE9F04182B01E4690F83E30DBB2202B3B
:101EFC005CD104460D46904600295BD0002A5BD08D
:101F0C0090F83C30012B59D0012380F83C30002351
:101F1C000364222280F83E200363FEF7EBFD0746A4
:101F2C00A4F82C80A4F82E80A368B3F5805F05D0AC
:101F3C004FF00008002384F83C3017E0236913B1FC
:101F4C004FF00008F6E7A8460025F3E723685B6826
:101F5C00C3F3080328F8023B03E023685B682B708B
:101F6C000135E28D92B2013A92B2E285E38D9BB2D9
:101F7C00BBB100963B46002220212046FFF79CFE79
:101F8C00F0B9002DE2D0A368B3F5805FE5D013B9AA
:101F9C002369002BE1D023685B6803F07F032B706F
:101FAC00DEE7202384F83E30002000E0022002B05F
:101FBC00BDE8F0810120FAE70120F8E70220F6E7FE
:101FCC000320F4E790F83D30DBB2202B19D1D1B1CE
:101FDC00DAB190F83C30012B19D0012380F83C3059
:101FEC0001628284C28400230364212280F83D2094
:101FFC0080F83C300168CA6842F08002CA6018461A
:10200C007047022070470120704701207047022062
:10201C007047704708B50168CA6822F04002CA6070
:10202C00202280F83D20FFF7F4FF002008BD704708
:10203C0008B5806B0023C385C384FFF7F8FF08BD88
:10204C00704790F83E30DBB2222B67D18368B3F532
:10205C00805F4DD0826AB3F5805F04D0002B54D1E1
:10206C000369002B51D103685B681370836A0133D9
:10207C008362C38D9BB2013B9BB2C385002B4FD1B6
:10208C0000B583B00268D36823F02003D3600268E4
:10209C00D36823F48073D3600268536923F001037F
:1020AC005361202380F83E30036B012B33D1002386
:1020BC000363026802F10C0353E8003F23F01003A2
:1020CC000C3242E800310029F3D103681A6812F08F
:1020DC00100F06D0002201921A6801925B680193DE
:1020EC00019B818DFFF7ACFF002003B05DF804FB72
:1020FC000269002AAED1826A03685B68C3F30803E5
:10210C001380836A02338362B3E703685B6803F06E
:10211C007F031370AAE700F0A5FAE5E702207047E9
:10212C000020704730B583B0044602681368D0684D
:10213C00516913F00F0505D113F0200F02D010F0E8
:10214C00200F19D12DB111F0010119D110F4907F8C
:10215C0016D1216B01297DD013F0800F03D010F024
:10216C00800F40F0158113F0400F03D010F0400F9A
:10217C0040F0128103B030BD2046FFF762FFF9E753
:10218C0013F0010F06D010F4807F03D0226C42F0C4
:10219C000102226413F0040F04D019B1226C42F036
:1021AC000202226413F0020F04D019B1226C42F027
:1021BC000402226413F0080F07D010F0200F00D196
:1021CC0019B1226C42F008022264226C002AD1D090
:1021DC0013F0200F02D010F0200F29D123685B6977
:1021EC0003F04003226C12F0080F00D163B32046B9
:1021FC00FFF77CFC23685B6913F0400F20D022684A
:10220C0002F1140353E8003F23F04003143242E878
:10221C0000310029F3D1A36B73B1614A1A65A06B2D
:10222C00FEF738FD0028A5D0A06B036D9847A1E7F9
:10223C002046FFF706FFD1E72046FFF7F8FE99E7A7
:10224C002046FFF7F4FE95E72046FFF7F0FE00234B
:10225C0023648FE713F0100F3FF47EAF10F0100FD4
:10226C003FF47AAF002301931368019353680193F1
:10227C00019B536913F0400F50D0A26B13685B683D
:10228C009BB2002B3FF476AFA18D99427FF672AFD3
:10229C00E385D369B3F5807F37D0226802F10C0354
:1022AC0053E8003F23F480730C3242E800310029DC
:1022BC00F3D1226802F1140353E8003F23F0010329
:1022CC00143242E800310029F3D1226802F11403E0
:1022DC0053E8003F23F04003143242E80031002958
:1022EC00F3D1202384F83E3000232363226802F1CB
:1022FC000C0353E8003F23F010030C3242E800318A
:10230C000029F3D1A06BFEF77BFCA18DE38D9BB272
:10231C00C91A89B22046FFF793FE2BE7A18DE38DF6
:10232C009BB2C91A89B2E38D9BB2002B3FF422AF4A
:10233C0000293FF41FAF226802F10C0353E8003F61
:10234C0023F490730C3242E800300028F3D1226859
:10235C0002F1140353E8003F23F00103143242E866
:10236C0000300028F3D1202384F83E30002323636F
:10237C00226802F10C0353E8003F23F010030C32E7
:10238C0042E800300028F3D12046FFF759FEF1E671
:10239C002046FFF7D9FBEDE62046FFF73BFEE9E6CA
:1023AC003D20000881628285C285002303642222BD
:1023BC0080F83E2080F83C30036923B10268D36872
:1023CC0043F48073D3600268536943F00103536193
:1023DC000268D36843F02003D3600020704708B52F
:1023EC0090F83E30DBB2202B0DD171B17AB190F860
:1023FC003C30012B0DD0012380F83C3000230363CB
:10240C00FFF7D0FF00E0022008BD0120FCE701200F
:10241C00FAE70220F8E700002DE9F04182B004460B
:10242C000D4616461F46DFF83080002280214046BC
:10243C00FEF742FD0097B3B22A4621460748FFF744
:10244C0062F90446012280214046FEF735FD204604
:10245C0002B0BDE8F08100BF00040240000B002078
:10246C002DE9F04385B005460E4690461C469DF876
:10247C0030909DF8347061F07F038DF808308DF842
:10248C0009208DF80A408DF80B908DF80C70012303
:10249C000522694602A8FFF7BFFF240444EA08643A
:1024AC0044EA09243C4306F07F062B6803EB8603C1
:1024BC005C60354495F8103243F0080385F810320F
:1024CC0005B0BDE8F08300B583B0D3B20193C2F37D
:1024DC0007230093C2F30743120EFFF7C1FF03B0AB
:1024EC005DF804FB10B584B001F07F04031993F878
:1024FC00103213F0010F05D1016801EB8404606800
:10250C0004B010BD124B93E8030002908DF80C1030
:10251C008DF8084001230522694602A8FFF77CFFCD
:10252C008DF8084001230522694602A8FFF774FFC5
:10253C009DF809309DF80A00000440EA03609DF8FC
:10254C000B3040EA03209DF80C301843D8E700BF4D
:10255C002438000810B4144600224260C260826025
:10256C000460C4F80C22046884F8101201684A70E4
:10257C0001680A700BE0084911F802C0811881F853
:10258C0010C2111D53F8224040F8214001327F2A1D
:10259C00F1D910BC704700BF4438000808B5054B92
:1025AC001860054B1868002302221946806800F059
:1025BC00EFF808BD300C00200C00002010B50138DD
:1025CC0001280AD814464FF0FF3392B2074800682E
:1025DC00FFF71AFC40B9204610BD00F05DF8092346
:1025EC0003604FF0FF30F7E70520F5E7300C0020D3
:1025FC00022801D80020704708B500F04DF80923D7
:10260C0003604FF0FF3008BD08B500F045F8092312
:10261C0003604FF0FF3008BD08B548B94FF0FF33E9
:10262C00012208480068FFF75BFC40B9012008BD97
:10263C0000F032F8092303604FF0FF30F7E7052074
:10264C00F5E700BF300C002008B5022804D84FF481
:10265C0000534B60002008BD00F01EF809230360F6
:10266C00F8E700000268084B9A4200D0704710B59A
:10267C00064C802221460648FFF7A4FC8022214606
:10268C000448FFF7ACFE10BD00440040340C0020A1
:10269C00A40B0020E80B0020014B1868704700BF0A
:1026AC000C00002070B50D4E0D4D761BB61006D0EB
:1026BC00002455F8043B01349847A642F9D1094E41
:1026CC00094D761B01F09CF8B61006D0002455F885
:1026DC00043B01349847A642F9D170BDD0380008AC
:1026EC00D0380008D8380008D0380008830730B537
:1026FC0048D0541E002A3FD0CAB2034601E0013C28
:10270C003AD303F8012B9D07F9D1032C2DD9CDB267
:10271C0045EA05250F2C45EA054536D9A4F11002EA
:10272C0022F00F0C03F1200EE6444FEA121C03F1C9
:10273C00100242E9045542E9025510327245F8D1B3
:10274C000CF1010214F00C0F03EB021204F00F0C4D
:10275C0013D0ACF1040323F003030433134442F805
:10276C00045B9342FBD10CF003042CB1CAB21C44A1
:10277C0003F8012B9C42FBD130BD64461346002C60
:10278C00F4D1F9E703461446BFE71A46A446E0E73E
:10279C002DE9F043694CD4F8008083B004460E4612
:1027AC0017461D46B8F1000F03D0D8F83830002B6F
:1027BC0077D0022F05D0012F00F2AC80002DC0F293
:1027CC00A980636EDA0752D52146404600F058F9CD
:1027DC00216B41B104F14003994202D0404600F014
:1027EC007BFA00232363B4F90CC000231CF0800F88
:1027FC00A361636064D12CF44A6C2CF0030C022F9F
:10280C00A4F80CC06AD001AB6A462146404600F0E1
:10281C0095FBA3891843A081002D2FD0002E2ED01C
:10282C00D8F83830002B38D0009B2660AB42B4F976
:10283C000C301CBF43F40063A381012F04BF43F091
:10284C000103A3819AB213F00803C4E904652CD0E8
:10285C00D1075DD56D42A561656E002315F00105AC
:10286C00A36027D00025284603B0BDE8F083A389D8
:10287C009B05A9D4A06D00F05DFBA5E7009D284643
:10288C0000F08CFB0646002847D0A38943F0800358
:10289C00A381D8F83830002BC6D1404600F024F97B
:1028AC00C2E7404600F020F983E7A360656E15F09F
:1028BC000105D7D1930524D5284603B0BDE8F08394
:1028CC002169404600F008FAB4F90CC02CF44A6CAB
:1028DC002CF0030C022FA4F80CC094D1002500227C
:1028EC0004F14303A2600122C4E904322360636E45
:1028FC004CF0020CD807A4F80CC0DDD41CF4007FFB
:10290C00DAD1A06D00F018FB284603B0BDE8F083C7
:10291C00A560CBE74FF0FF35CEE7DDF80090A94579
:10292C0004D0484600F03AFB064620B9B4F90CC076
:10293C004FF0FF35D3E74D46A7E700BF0C00002052
:10294C00024B13B1024800F005B8704700000000BC
:10295C00192C0008002301461A46184600F050BEF8
:10296C00B1F90C20F8B50C461107074642D4636840
:10297C0042F40062002BA28159DDA56A002D54D0CF
:10298C0000233E683B6093B212F4805253D1E1694C
:10299C0001233846A847421C63D0A389A56A5B076C
:1029AC0005D56368C01A236B0BB1E36BC01AE169E0
:1029BC00024600233846A847411C3ED13B68002BF9
:1029CC003BD01D2B01D0162B52D1A389226922603A
:1029DC0023F4006300216160A381216B3E6021B36D
:1029EC0004F14003994202D0384600F075F90020FA
:1029FC002063F8BD2669C6B193B2256826609A0794
:102A0C000CBF63690023AD1BA3600CE0D4F824C099
:102A1C00E1692B4632463846E047B0F1000CA5EB95
:102A2C000C05664416DD002DF0DC0020F8BDE36BD0
:102A3C00002BA2DCF9E7206DB1E7B4F90C30226968
:102A4C00226023F40063A3810022DB046260C4D5FE
:102A5C002065C2E7A38943F040034FF0FF30A38108
:102A6C00F8BD3B68002B98D01D2B06D0162B04D03C
:102A7C00A38943F04003A381F8BD3E60D5E700BFB6
:102A8C0038B50C46054608B1836BA3B1B4F90C00FC
:102A9C00B8B1636EDB0701D4810515D528462146F4
:102AAC00FFF75EFF636EDA07054602D4A3899B0528
:102ABC000ED5284638BD00F017F8B4F90C000028E4
:102ACC00E7D10546284638BDA06D00F033FAE5E79E
:102ADC00A06D00F031FA284638BD00BF014900F066
:102AEC0001BA00BFBD3600082DE9F04782463948CF
:102AFC0000F020FADAF83840002C66D1DAF80450ED
:102B0C00354ACAF83C200323CAE9B843DFF8CC9015
:102B1C00DFF8CC80334F344E04230AF53B72CAF8ED
:102B2C00E8222146C5E90243C5E90044C5E904444D
:102B3C006C660822AC6105F15C00FFF7D7FDC5E9B6
:102B4C000759C5E90987EE6205F1580000F0EEF966
:102B5C00DAF80850254BEB602146C5E90044C5E97D
:102B6C0004446C66AC60AC61082205F15C00FFF7B4
:102B7C00BDFDC5E90759C5E90987EE6205F15800A5
:102B8C0000F0D4F9DAF80C50194BEB602146C5E98A
:102B9C000044C5E904446C66AC60AC61082205F1E4
:102BAC005C00FFF7A3FD05F15800C5E90759C5E91D
:102BBC000A76C5F8248000F0B9F90123CAF8383038
:102BCC000448BDE8F04700F0B7B9BDE8F04701484C
:102BDC0000F0B2B9C00C0020E92A000855350008F5
:102BEC0079350008B9350008D9350008090001000D
:102BFC0012000200014800F09DB900BFBC0C00207F
:102C0C00014800F099B900BFBC0C002038B5084B46
:102C1C00084D5B1B9C1007D0043B1D44013C55F830
:102C2C0004399847002CF9D1BDE8384000F0EEBDCE
:102C3C00DC380008D8380008F8B5244F0C46064696
:102C4C0000F064FCBA685568C4F57E630F3325F058
:102C5C0003052B4423F47F6323F00F03A3F5805467
:102C6C00B4F5805F07DB0021304600F05BFCBB68ED
:102C7C002B44984204D0304600F04EFC0020F8BDA6
:102C8C006142304600F04EFC01300DD0104ABB685A
:102C9C002D1B45F001055D60136830461B1B13604E
:102CAC0000F03AFC0120F8BD0021304600F03AFC5F
:102CBC00BA68831A0F2BDEDD43F001035360054B1A
:102CCC0003491B68C01A0860D5E700BF3C0400200C
:102CDC00C40C002044080020002961D0F8B50C4633
:102CEC00064600F013FC54F8042C7B4FA4F10805A5
:102CFC0022F0010105EB010CB868DCF804306045EA
:102D0C0023F0030300F08B80D207CCF8043032D4CC
:102D1C0054F8082CAD1A1144AA6807F10800824235
:102D2C006AD00CEB0304D4F804E0EC68D4601EF019
:102D3C00010FA26000F0978041F001036B60CCF8AA
:102D4C000010B1F5007F35D27A68CB084809012113
:102D5C00013381401143796007EBC30257F83310FC
:102D6C00083AC5E9021247F83350CD603046BDE849
:102D7C00F84000F0D1BB0CEB03025268D00710D422
:102D8C00194407F10800DCF80830834273D0DCF8F2
:102D9C000C20DA60936041F001036B606950D0E75E
:102DAC00704741F00103B1F5007F44F8043CCCF8C6
:102DBC000010C9D3B1F5206F4FEA512348D28B09CB
:102DCC0003F1390003F13802C300F818FB58083836
:102DDC00984259D05A6822F003028A4202D99B6861
:102DEC009842F7D1D868C5E902308560DD6030467D
:102DFC00BDE8F84000F090BB0CEB03025268D20720
:102E0C0063D40B44DCE90212CA60916043F0010206
:102E1C006A603046EB50BDE8F84000F07DBB0B44D7
:102E2C00D10707D454F8082CAD1A1344D5E9021273
:102E3C00CA60916043F001026A60284ABD60126862
:102E4C009A4293D8264B30461968FFF7F5FE8DE76A
:102E5C00142B0AD9542B1FD80B0B03F16F0003F161
:102E6C006E02C300B1E719448DE703F15C0003F176
:102E7C005B02C300A9E741F00103C7E90455C5E9AA
:102E8C0002006B60695071E779689210012404FAB2
:102E9C0002F20A437A60A6E7B3F5AA7F06D8CB0BF9
:102EAC0003F1780003F17702C3008EE740F254522D
:102EBC00934206D88B0C03F17D0003F17C02C30016
:102ECC0083E74FF47E737E227FE741F001036B6052
:102EDC00CCF800104AE700BF3C0400204808002052
:102EEC00F40C00202DE9F8430746884600F53876A7
:102EFC004FF00009D6E90154013D11D4A389012BEF
:102F0C0005F1FF3508D9B4F90E300133214603D051
:102F1C003846C04749EA00096B1C04F16804EDD13E
:102F2C003668002EE6D14846BDE8F883704700BFEE
:102F3C00704700BF704700BF704700BF70B50C46AC
:102F4C00B1F90E10002996B015461E4614DB6A46E0
:102F5C0000F014FC00280FDB019A02F47042A2F579
:102F6C000052B2FA82F24FF4806352094FF40060BF
:102F7C0032602B6016B070BDB4F90C10002311F048
:102F8C008000336004D0402218462A6016B070BD11
:102F9C004FF480632B6016B070BD00BF024B01462E
:102FAC00186800F003B800BF0C0000202DE9F04FAA
:102FBC0001F10B06162E83B0044624D8102900F21A
:102FCC00BA8000F0A3FA102618220220B54F3A441A
:102FDC00A2F1080153688B4200F0BA805A68D96894
:102FEC0022F003021A449D68E9608D60516841F03B
:102FFC0001012046516003F1080500F08DFA2846C6
:10300C0003B0BDE8F08F36F0070600F19480B142B2
:10301C0000F2918000F07AFAB6F5FC7FC0F09A814C
:10302C00730A00F08F80042B00F26F81B30903F157
:10303C00390003F1380CC3009A4F3B44A3F1080547
:10304C005B689D4206D10CE0002980F22781DB6889
:10305C009D4206D05A6822F00302911B0F29F3DD22
:10306C0060463D69DFF840C265457CD06A6822F055
:10307C000302931B0F2B00F37B81002BC7E904CCBD
:10308C0080F26C81B2F5007F80F01A81D3087968E8
:10309C0001334FEA521E012202FA0EF20A4357F88C
:1030AC0033E0C5F808E007EBC3010839E9607A6042
:1030BC0047F83350CEF80C508310012199409142BF
:1030CC0057D8114206D120F003004900114200F1FB
:1030DC000400FAD007EBC0094D468646D5F80C80A3
:1030EC00454508D11DE1002B80F22481D8F80C80D5
:1030FC00454500F01681D8F8042022F00302931BFA
:10310C000F2BF0DD2046D8E9025408EB060146F0FF
:10311C000106C8F80460EC60A56043F00104C7E93F
:10312C000411C1E902CC4C6048F8023000F0F4F90B
:10313C0008F1080502E00C2323600025284603B0A3
:10314C00BDE8F08F4FF4007340204FF03F0C73E755
:10315C00D3689A4208BF02307FF440AF3D69DFF874
:10316C0048C1654582D17A6883100121994091420A
:10317C00A7D9BD686B6823F003094E4503D8A9EBAA
:10318C0006030F2B7ADCDFF824B1494BDBF8002067
:10319C001B680132334405EB090A00F0338103F557
:1031AC0080530F3323F47F6828F00F0841462046E4
:1031BC0000F0B8F9411C024600F0F380824500F2A1
:1031CC00EE803C4B196841441960084600F04E8172
:1031DC00DBF80010019301311BBFA2EB0A0A50442B
:1031EC00CBF80020186012F0070B00F01781CBF120
:1031FC0008010A44CBF5805190440831A1EB080139
:10320C00C1F30B0A51462046009200F08BF9421C88
:10321C00DDE9002300F04F81801A00EB0A081968E1
:10322C00BA6048F001005144BD425060196000F092
:10323C002981B9F10F0F40F227816868A9F10C0CB4
:10324C002CF0070C00F0010040EA0C0068604FF015
:10325C00050E05EB0C00BCF10F0FC0E901EE00F2FE
:10326C00328150681546144B1A688A4238BF19606F
:10327C00124B1A688A4238BF196094E0AA1943F0BD
:10328C00010346F001066E602046BA60536000F000
:10329C0043F90835284603B0BDE8F08FD9681A44C5
:1032AC00A1E600BF3C040020440400204408002098
:1032BC00F40C0020C40C0020EC0C0020F00C0020BE
:1032CC00B2F5206F4FEA522363D3142B00F2B78070
:1032DC0003F15C01C9005B3307EB010E7958AEF1C9
:1032EC00080E8E4500F091804B6823F00303934247
:1032FC0002D989688E45F7D1D1F80CE07A68C5E916
:10330C00021ECEF80850CD60D6E6142B59D9542B9A
:10331C0000F29D80330B03F16F0003F16E0CC300C0
:10332C008AE60EF1010E1EF0030F05F108057FF47D
:10333C00D5AE51E0424445465368D8F80C1043F0E2
:10334C000103536055F8083F2046D9608B6000F0AC
:10335C00E3F8F3E6F00806F1080237E62A442046C3
:10336C00536843F001035360083500F0D5F8E5E6E7
:10337C00A919204646F0010643F001046E60C7E926
:10338C000411C1E902CC4C60AB5000F0C5F8083513
:10339C00D4E6930903F13901C90038339CE7BD42E7
:1033AC005FD0BD68686820F003084645A8EB0603AB
:1033BC0002D80F2B3FF762AF204600F0ADF8002586
:1033CC00BCE603F15C0003F15B0CC30034E659F876
:1033DC0008394B4540F0968010F0030F00F1FF3098
:1033EC00F5D17B6823EA01037B60490099423FF6E3
:1033FC00C0AE19B9BDE649000EF1040E1942FAD05F
:10340C00704667E603F11008D0E69A104FF00108F9
:10341C007B6808FA02F21A437A6070E702EB080143
:10342C004942C1F30B0A51462046009200F07AF84B
:10343C00431CDDE900237FF4EFAEDA46EFE6542BB4
:10344C0025D8130B03F16F01C9006E3344E7B3F5B4
:10345C00AA7F25D8F30B03F1780003F1770CC30096
:10346C00EAE5294B186840441860B1E6CAF30B0C26
:10347C00BCF1000F7FF4ACAEBD68C84448F001004D
:10348C006860F0E61546EEE60123536094E7B3F569
:10349C00AA7F23D8D30B03F17801C90077331BE73C
:1034AC0040F25452934223D8B30C03F17D0003F144
:1034BC007C0CC300C0E5ABF1080BD844A8EB0208A8
:1034CC004FF0000AABE605F1080120460093FFF728
:1034DC0003FCBD68009B68681968C4E640F254514F
:1034EC008B420BD8930C03F17D01C9007C33F3E6BE
:1034FC004FF47E737F204FF07E0C9DE54FF47E7170
:10350C007E23E9E67B6870E7C40C00200148FFF7D6
:10351C0011BD00BFB80C00200148FFF70DBD00BF66
:10352C00B80C002038B5074D0022044608462A6026
:10353C00FDF762F9431C00D038BD2B68002BFBD083
:10354C00236038BDF80C002010B50C46B1F90E10F4
:10355C0000F040F9002803DB236D0344236510BD04
:10356C00A38923F48053A38110BD00BF2DE9F04142
:10357C000C46B1F90C101F46CB05054616460BD46C
:10358C0021F48051A1813B46B4F90E1032462846F5
:10359C00BDE8F04100F01EB8B4F90E100223002271
:1035AC0000F002F9B4F90C10EAE700BF10B50C46B4
:1035BC00B1F90E1000F0F8F8A389421C0EBF23F4E9
:1035CC00805343F480532065A38110BDB1F90E10D4
:1035DC0000F05CB838B50C46084D844611462046C0
:1035EC001A4600232B606446FEF7E8FF431C00D00C
:1035FC0038BD2B68002BFBD0236038BDF80C0020A5
:10360C002DE9F047DFF87CA00646DAF80000984672
:10361C000F469146FFF78EFC1B4B1B68D3F84841B5
:10362C0024B365681F2D26DC5EB96B1C0235DAF8F5
:10363C000000636044F82570FFF77EFC0020BDE8B5
:10364C00F08704EB85010123C1F88890D4F8882118
:10365C00AB401A43022EC4F88821C1F80881E4D18A
:10366C00D4F88C211343C4F88C31DEE703F5A6742F
:10367C00C3F84841D5E7DAF80000FFF75DFC4FF0DE
:10368C00FF30DCE738040020C438000838B5074D9B
:10369C000022044608462A60FEF7AAFF431C00D00D
:1036AC0038BD2B68002BFBD0236038BDF80C0020F4
:1036BC0070B500294BD006460C4610B1836B002B1D
:1036CC0048D0636ED80734D5B4F90C30002B3ED0FB
:1036DC0021463046FFF744F9E36A054633B1E16908
:1036EC00304698470028B8BF4FF0FF35A3891A061B
:1036FC003BD4216B41B104F14003994202D03046D6
:10370C00FFF7EAFA00232363616C21B13046FFF71F
:10371C00E3FA00236364FFF76DFA636E0022DB07A4
:10372C00A28127D5A06DFFF703FCFFF769FA2846A5
:10373C0070BDA3899905CBD4A06DFFF7FBFBB4F941
:10374C000C30002BC4D1656E15F0010508D0002596
:10375C00284670BDFFF7C8F9636ED807B4D4E8E704
:10376C00A06DFFF7E9FB284670BD21693046FFF7D5
:10377C00B3FABEE7A06DFFF7DFFBD3E770B50C46DD
:10378C00084D03460026204611461C462E60FEF7C7
:10379C005BFF431C00D070BD2B68002BFBD023605B
:1037AC0070BD00BFF80C002038B50C46084D84469F
:1037BC00114620461A4600232B606446FEF724FF70
:1037CC00431C00D038BD2B68002BFBD0236038BDC8
:1037DC00F80C002038B50C46084D8446114620469E
:1037EC001A4600232B606446FEF716FF431C00D0DC
:1037FC0038BD2B68002BFBD0236038BDF80C0020A3
:10380C00F8B500BFF8BC08BC9E467047F8B500BFC1
:08381C00F8BC08BC9E46704791
:103824000000000000000000000000000000000094
:103834000102030406070809000000000102030452
:103844000323010213020201030202020100000029
:103854000202010202020000000000000000000059
:103864000303010202020202020002020203000038
:1038740000000002032301000303022301020000ED
:103884000000000000000000000000000000000034
:103894000000000000000000000000000000000024
:1038A4004242424242424242424201010302020176
:1038B40042010101000000000000000000000000BF
:0438C40010000020D0
:0838C80054C9FF7F010000005C
:0838D0004D290008D101000898
:0438D800AD01000836
:1038DC000024F40001000000100000001000002083
:1038EC0000000000FC02002064030020CC03002038
:1038FC0000000000000000000000000000000000BC
:10390C0000000000000000000000000000000000AB
:10391C00000000000000000000000000000000009B
:10392C00000000000000000000000000000000008B
:10393C00000000000000000000000000000000007B
:10394C00000000000000000000000000000000006B
:10395C00000000000000000000000000000000005B
:10396C00000000000000000000000000000000004B
:10397C00000000000000000000000000000000003B
:10398C00000000000000000001000000000000002A
:10399C000E33CDAB34126DE6ECDE05000B000000EF
:1039AC00000000000000000000000000000000000B
:1039BC0000000000000000000000000000000000FB
:1039CC0000000000000000000000000000000000EB
:1039DC0000000000000000000000000000000000DB
:103D0C000000000000000000B40C002000000000C7
:103D1C00000000003C0400203C040020440400206F
:103D2C00440400204C0400204C04002054040020C7
:103D3C00540400205C0400205C0400206404002077
:103D4C00640400206C0400206C0400207404002027
:103D5C00740400207C0400207C04002084040020D7
:103D6C00840400208C0400208C0400209404002087
:103D7C00940400209C0400209C040020A404002037
:103D8C00A4040020AC040020AC040020B4040020E7
:103D9C00B4040020BC040020BC040020C404002097
:103DAC00C4040020CC040020CC040020D404002047
:103DBC00D4040020DC040020DC040020E4040020F7
:103DCC00E4040020EC040020EC040020F4040020A7
:103DDC00F4040020FC040020FC0400200405002056
:103DEC00040500200C0500200C0500201405002003
:103DFC00140500201C0500201C05002024050020B3
:103E0C00240500202C0500202C0500203405002062
:103E1C00340500203C0500203C0500204405002012
:103E2C00440500204C0500204C05002054050020C2
:103E3C00540500205C0500205C0500206405002072
:103E4C00640500206C0500206C0500207405002022
:103E5C00740500207C0500207C05002084050020D2
:103E6C00840500208C0500208C0500209405002082
:103E7C00940500209C0500209C050020A405002032
:103E8C00A4050020AC050020AC050020B4050020E2
:103E9C00B4050020BC050020BC050020C405002092
:103EAC00C4050020CC050020CC050020D405002042
:103EBC00D4050020DC050020DC050020E4050020F2
:103ECC00E4050020EC050020EC050020F4050020A2
:103EDC00F4050020FC050020FC0500200406002051
:103EEC00040600200C0600200C06002014060020FE
:103EFC00140600201C0600201C06002024060020AE
:103F0C00240600202C0600202C060020340600205D
:103F1C00340600203C0600203C060020440600200D
:103F2C00440600204C0600204C06002054060020BD
:103F3C00540600205C0600205C060020640600206D
:103F4C00640600206C0600206C060020740600201D
:103F5C00740600207C0600207C06002084060020CD
:103F6C00840600208C0600208C060020940600207D
:103F7C00940600209C0600209C060020A40600202D
:103F8C00A4060020AC060020AC060020B4060020DD
:103F9C00B4060020BC060020BC060020C40600208D
:103FAC00C4060020CC060020CC060020D40600203D
:103FBC00D4060020DC060020DC060020E4060020ED
:103FCC00E4060020EC060020EC060020F40600209D
:103FDC00F4060020FC060020FC060020040700204C
:103FEC00040700200C0700200C07002014070020F9
:103FFC00140700201C0700201C07002024070020A9
:10400C00240700202C0700202C0700203407002058
:10401C00340700203C0700203C0700204407002008
:10402C00440700204C0700204C07002054070020B8
:10403C00540700205C0700205C0700206407002068
:10404C00640700206C0700206C0700207407002018
:10405C00740700207C0700207C07002084070020C8
:10406C00840700208C0700208C0700209407002078
:10407C00940700209C0700209C070020A407002028
:10408C00A4070020AC070020AC070020B4070020D8
:10409C00B4070020BC070020BC070020C407002088
:1040AC00C4070020CC070020CC070020D407002038
:1040BC00D4070020DC070020DC070020E4070020E8
:1040CC00E4070020EC070020EC070020F407002098
:1040DC00F4070020FC070020FC0700200408002047
:1040EC00040800200C0800200C08002014080020F4
:1040FC00140800201C0800201C08002024080020A4
:10410C00240800202C0800202C0800203408002053
:0C411C0034080020FFFFFFFF000002003D
:0400000508000A15D0
:00000001FF
